:03000000020800F3
:0C080000787FE4F6D8FD758120020847DF
:0F0930000A0BC0F9A4B0999282F88090010A00D6
:0300130002088C54
:10088C00C0E0C0F0C083C082C0D075D000C000C032
:10089C0001C002C003C004C005C006C00712094055
:1008AC000509E50970020508B4E80DE508B403086C
:1008BC00050A7508007509001208E2D007D006D0A9
:1008CC0005D004D003D002D001D000D0D0D082D03B
:0608DC0083D0F0D0E032F1
:1009200075A88275890112094012090FD28C80FEC8
:10090F0075A002850B8075A001850B80D200C201F6
:01091F0022B5
:07094000758CFC758A18227A
:1008E20030001375A002C200D201E50A75F00A8435
:1008F200740B25F0801230011375A001C201D200E1
:0D090200E50A75F00A84240BF8E6F5802262
:10080C00020920E493A3F8E493A34003F68001F2D9
:10081C0008DFF48029E493A3F85407240CC8C333ED
:10082C00C4540F4420C8834004F456800146F6DFBC
:10083C00E4800B0102040810204080900930E47E13
:10084C00019360BCA3FF543F30E509541FFEE493B1
:10085C00A360010ECF54C025E060A840B8E493A378
:10086C00FAE493A3F8E493A3C8C582C8CAC583CAA3
:10087C00F0A3C8C582C8CAC583CADFE9DEE780BE5B
:01093F0000B7
:00000001FF
