:0A09E1001209BB7F011209AC80FE71
:0E09BB0075A881D288C294C295C296C29722B6
:03000300020800F0
:10080000C0E0C0F0C083C082C0D075D000C000C0BE
:0D08100001C002C003C004C005C006C0073F
:10081D00750F007510007511001209C9750F01AF24
:10082D000F1208698F11E5117009050FE50FD394AB
:10083D000440ECE5116002F510AF101209AC12097D
:01084D00BBEF
:10084E00D007D006D005D004D003D002D001D000FE
:0B085E00D0D0D082D083D0F0D0E032A8
:0F09AC007F011209647F0E1209647F41020980E6
:0C09C900E4F5A8C294C295C296C2972221
:10086900E4FEEF24FE600E14600F14601024037080
:100879000EC294800AC2958006C2968002C2972051
:1008890090067E01D29080192091067E02D2918035
:10089900102092067E03D29280072093047E04D210
:1008A90093209402D294209502D295209602D29652
:1008B900209702D297EE6009EF1425E025E02EFF7C
:0308C900227F008B
:0108CC002209
:10099C00EF1FAC0670011ED39400EC940050F122B2
:10094400E4FDFCC3ED9FEC9E5015E4FAFB0BBB00E9
:0F095400010AEB647A4A70F50DBD00010C80E4D6
:010963002271
:0109EB0022E9
:10096400C2908FA0C291D291EF64016003BF0204D0
:0C0974007F0280027F017E0012094422F5
:10098000D2908FA0C291D291EF64016003BF0204A4
:0C0990007F0280027F017E0012094422D9
:06091A008B088A09890A1E
:10092000AB08AA09A90A850E82850D831208CD603D
:1009300012780B1208FA8F828E831208CDFF1209EB
:030940008080DDD7
:010943002291
:030000000209D51D
:0C09D500787FE4F6D8FD7581110209E17D
:1008CD00BB010CE58229F582E5833AF583E02250E0
:1008DD0006E92582F8E622BBFE06E92582F8E2222A
:0D08ED00E58229F582E5833AF583E4932244
:1008FA007401FF3395E0FEFDFC080808E6CF2FF6E9
:10090A0018E6CE3EF618E6CD3DF618E6CC3CF622C1
:00000001FF
