:070ABB00E4FF120AA280FE15
:050AC9007E0002099F00
:100A9200EF1FAC0670011ED39400EC940050F122BB
:100A1A00E4FDFCC3ED9FEC9E5015E4FAFB0BBB0012
:0F0A2A00010AEB647A4A70F50DBD00010C80E4FF
:010A3900229A
:010ACE002205
:100A5A00C2808FA0C281D281EF64016003BF020409
:0C0A6A007F0280027F017E00120A1A2227
:100A7600D2808FA0C281D281EF64016003BF0204DD
:0C0A86007F0280027F017E00120A1A220B
:10099F008E0F8F107F01120A5A7F0C120A5AE51020
:1009AF00450F7008E5102430FF020A76E510450F59
:1009BF006023AE0FAF107C007D0A120858ED243073
:1009CF00FF120A76AE0FAF107C007D0A1208588E08
:0609DF000F8F1080D722EB
:0609E5008B088A09890A53
:1009EB00E4F50BF50CAB08AA09A90A850C82850B5B
:1009FB00831208196018050CE50CAE0B7002050B81
:0E0A0B0014F5828E83120819FF120A7680D726
:010A190022BA
:0D0AA200AB14AA15A916EF120846020A3A75
:100A3A00AB14AA15A916120800700775A881D288E6
:100A4A00800575A884D28AC294C295C296C297229A
:070AC200E4F5A87590FF2286
:10095700E4FEEF24FE600E14600F14601024037091
:100967000EC294800AC2958006C2968002C2972062
:1009770090047E0180132091047E02800C20920453
:100987007E0380052093027E04EE6009EF1425E0C4
:0709970025E02EFF227F0086
:01099E002236
:030003000208AD43
:1008AD00C0E0C0F0C083C082C0D075D000C000C011
:0D08BD0001C002C003C004C005C006C00792
:1008CA00E4FDFCFF120AC20DAF05120957EF7004CE
:0D08DA000DBD05F4EF6003120AC9120A3AC1
:1008E700D007D006D005D004D003D002D001D00065
:0B08F700D0D0D082D083D0F0D0E0320F
:03001B00020902D5
:10090200C0E0C0F0C083C082C0D075D000C000C0BB
:0D09120001C002C003C004C005C006C0073C
:10091F00E4FDFCFF120AC20DAF05120957EF700478
:0D092F000DBD05F4EF6003120AC9120A3A6B
:10093C00D007D006D005D004D003D002D001D0000F
:0B094C00D0D0D082D083D0F0D0E032B9
:03000000020AAF42
:0C0AAF00787FE4F6D8FD758116020ABBC2
:10080000BB010689828A83E0225002E722BBFE02F6
:09081000E32289828A83E4932229
:10081900BB010CE58229F582E5833AF583E0225094
:1008290006E92582F8E622BBFE06E92582F8E222DE
:0D083900E58229F582E5833AF583E49322F8
:10084600BB010689828A83F0225002F722BBFE0191
:02085600F3228B
:10085800BC000BBE0029EF8DF084FFADF022E4CC84
:10086800F875F008EF2FFFEE33FEEC33FCEE9DEC4D
:10087800984005FCEE9DFE0FD5F0E9E4CEFD22ED93
:10088800F8F5F0EE8420D21CFEADF075F008EF2FDD
:10089800FFED33FD4007985006D5F0F222C398FDCE
:0508A8000FD5F0EA226B
:00000001FF
