:0509DE001209BD80FEBE
:0E09BD0075A881D288C294C295C296C29722B4
:03000300020800F0
:10080000C0E0C0F0C083C082C0D075D000C000C0BE
:0D08100001C002C003C004C005C006C0073F
:10081D00750D00750E00750F001209D7750D01AF1E
:10082D000D1208698F0FE50F7009050DE50DD394B5
:10083D000440ECE50F6007F50EAF0E12092F1209FB
:01084D00BDED
:10084E00D007D006D005D004D003D002D001D000FE
:0B085E00D0D0D082D083D0F0D0E032A8
:10092F008F107F011209757F0C120975E51075F094
:10093F000A842430FF120991E51075F00A84E5F05E
:06094F002430FF020991B3
:0709D700E4F5A87590FF2272
:10086900E4FEEF24FE600E14600F14601024037080
:100879000EC294800AC2958006C2968002C2972051
:1008890090067E01D29080192091067E02D2918035
:10089900102092067E03D29280072093047E04D210
:1008A90093209402D294209502D295209602D29652
:1008B900209702D297EE6009EF1425E025E02EFF7C
:0308C900227F008B
:0108CC002209
:1009AD00EF1FAC0670011ED39400EC940050F122A1
:10095500E4FDFCC3ED9FEC9E5015E4FAFB0BBB00D8
:0F096500010AEB647A4A70F50DBD00010C80E4C5
:010974002260
:0109E30022F1
:10097500C2808FA0C281D281EF64016003BF0204EF
:0C0985007F0280027F017E0012095522D3
:10099100D2808FA0C281D281EF64016003BF0204C3
:0C09A1007F0280027F017E0012095522B7
:0608CD008B088A09890A6C
:1008D300E4F50BF50CAB08AA09A90A850C82850B74
:1008E300831209026018050CE50CAE0B7002050BB0
:0E08F30014F5828E83120902FF12099180D73C
:0109010022D3
:030000000209CB27
:0C09CB00787FE4F6D8FD7581100209DE8B
:10090200BB010CE58229F582E5833AF583E02250AA
:1009120006E92582F8E622BBFE06E92582F8E222F4
:0D092200E58229F582E5833AF583E493220E
:00000001FF
