:070A4600E4FF120A2D80FEFF
:10097F008F147F011209E57F0C1209E5E51475F05C
:10098F000A842430FF120A01E51475F00A84E5F099
:06099F002430FF020A01F2
:100A1D00EF1FAC0670011ED39400EC940050F12230
:1009A500E4FDFCC3ED9FEC9E5015E4FAFB0BBB0088
:0F09B500010AEB647A4A70F50DBD00010C80E475
:0109C4002210
:010A5400227F
:1009E500C2808FA0C281D281EF64016003BF02047F
:0C09F5007F0280027F017E001209A52213
:100A0100D2808FA0C281D281EF64016003BF020452
:0C0A11007F0280027F017E001209A522F6
:06094A008B088A09890AEE
:10095000E4F50BF50CAB08AA09A90A850C82850BF6
:10096000831208196018050CE50CAE0B7002050B1C
:0E09700014F5828E83120819FF120A0180D737
:01097E002256
:0D0A2D00AB10AA11A912EF1208460209C56C
:1009C500AB10AA11A912120800700775A881D28868
:1009D500800575A884D28AC294C295C296C2972210
:070A4D00E4F5A87590FF22FB
:10090200E4FEEF24FE600E14600F146010240370E6
:100912000EC294800AC2958006C2968002C29720B7
:1009220090047E0180132091047E02800C209204A8
:100932007E0380052093027E04EE6009EF1425E019
:0709420025E02EFF227F00DB
:01094900228B
:0300030002085898
:10085800C0E0C0F0C083C082C0D075D000C000C066
:0D08680001C002C003C004C005C006C007E7
:10087500E4FDFCFF120A4D0DAF05120902EF7004ED
:0D0885000DBD05F4EF600312097F1209C5D7
:10089200D007D006D005D004D003D002D001D000BA
:0B08A200D0D0D082D083D0F0D0E03264
:03001B000208AD2B
:1008AD00C0E0C0F0C083C082C0D075D000C000C011
:0D08BD0001C002C003C004C005C006C00792
:1008CA00E4FDFCFF120A4D0DAF05120902EF700498
:0D08DA000DBD05F4EF600312097F1209C582
:1008E700D007D006D005D004D003D002D001D00065
:0B08F700D0D0D082D083D0F0D0E0320F
:03000000020A3AB7
:0C0A3A00787FE4F6D8FD758114020A46AE
:10080000BB010689828A83E0225002E722BBFE02F6
:09081000E32289828A83E4932229
:10081900BB010CE58229F582E5833AF583E0225094
:1008290006E92582F8E622BBFE06E92582F8E222DE
:0D083900E58229F582E5833AF583E49322F8
:10084600BB010689828A83F0225002F722BBFE0191
:02085600F3228B
:00000001FF
