:090A360056696574204E616D00E3
:10093D007D027F0112090D7BFF7A0A7936750C1045
:10094D007D021209B97FF47E011209607F18120928
:03095D009F80F286
:1009CF00EF24FE600704700B7F0180027F027E0020
:0409DF001209602277
:10099F00C2808FA0C281D281EF64016003BF0204C5
:0A09AF007F0280027F011209CF22AF
:0D0A1300D2808FA0C281D2817F010209CF65
:10090D008F088D097F0112099FE50824FE600304FD
:10091D0080047F2880027F3812099FE50924FE603C
:10092D000504700680047F0C80027F0E12099F2241
:040882008E128F1330
:10088600E4F519E51345127007EF2430FF020A1349
:10089600E51345126025AE12AF137C007D0A1208DF
:1008A6002D74142519F8A6050519AE12AF137C0090
:1008B6007D0A12082D8E128F1380D51519741425F2
:1008C60019F8E62430FF120A13E519600415198099
:0108D600EC35
:0108D70022FE
:0608D8008B0D8A0E890F52
:1008DE00E4F510F511AB0DAA0EA90F851182851046
:1008EE008312080060180511E511AE107002051094
:0E08FE0014F5828E83120800FF120A1380D7B1
:01090C0022C8
:06098000AE03AF05AD0659
:02098600AE07BA
:10098800E4FCEE24FE60070470067C8080027CC0D4
:07099800EC2D14FF02099F82
:1009E300EF24FE60070470097F8080027FC0120934
:0209F3009F2241
:0A0A2C008F1C120980AF1C02099F05
:0E0A05008E1A8F1B120980AF1BAE1A020882D8
:1009B9008B088A09890AAF05AD0C120986AB08AA0A
:0609C90009A90A0208D88A
:1009F500EF1FAC0670011ED39400EC940050F12259
:10096000E4FDFCC3ED9FEC9E5015E4FAFB0BBB00CD
:0F097000010AEB647A4A70F50DBD00010C80E4BA
:01097F002255
:010A3F002294
:03000000020A20D1
:0C0A2000787FE4F6D8FD75811C02093DCA
:10080000BB010CE58229F582E5833AF583E02250AD
:1008100006E92582F8E622BBFE06E92582F8E222F7
:0D082000E58229F582E5833AF583E4932211
:10082D00BC000BBE0029EF8DF084FFADF022E4CCAF
:10083D00F875F008EF2FFFEE33FEEC33FCEE9DEC78
:10084D00984005FCEE9DFE0FD5F0E9E4CEFD22EDBE
:10085D00F8F5F0EE8420D21CFEADF075F008EF2F08
:10086D00FFED33FD4007985006D5F0F222C398FDF9
:05087D000FD5F0EA2296
:00000001FF
