:100A43000A11C0F9A4B0999282F88090070A0000B5
:090A530000000000000208000090
:100A5D0075A882758901120A26120A6DD28C80FE44
:100A2600D200C201C202C203C204C205C206C20784
:0D0A3600C208C209C20AC20BC20CC20D22C6
:070A6D00758CFC758A18224C
:03000B00020908DF
:10090800C0E0C0F0C083C082C0D075D000C000C0B5
:1009180001C002C003C004C005C006C007120A6DAA
:100928000509E50970020508B4E80DE508B40308EF
:10093800050A750800750900E50AB43C05050B753C
:100948000A00E50BB43C05050C750B00E50CB41862
:1009580005050D750C00E50DB41E05050E750D0099
:10096800E50EB40C0F050F750E00E50FB4640575A0
:100978000F000510120800D007D006D005D004D00B
:1009880003D002D001D000D0D0D082D083D0F0D014
:02099800E0324B
:10080000E4F51B30000E75A001F590C200D201AFD7
:100810000A0208E330010F75A002E4F590C201D28C
:1008200002AF0A0208D130020F75A004E4F590C2AD
:1008300002D203AF0B0208E330030F75A008E4F502
:1008400090C203D204AF0B0208D130040F75A01080
:10085000E4F590C204D205AF0C0208E330050E7532
:10086000A020E4F590C205D206AF0C806430060EDD
:1008700075A040E4F590C206D207AF0D8065300741
:100880000E75A080E4F590C207D208AF0D8042300B
:10089000080EE4F5A0759001C208D209AF0E80439E
:1008A00030090EE4F5A0759002C209D20AAF0E809D
:1008B00020300A0EE4F5A0759004C20AD20BAF0FE7
:1008C0008021300B0FE4F5A0759008C20BD20CAF5D
:1008D0000FEF8029300C17E4F5A0759010C20CD2F0
:1008E0000DAF10EF75F00A84741125F08015300DEE
:1008F00016E4F5A0759020C20DD200E51075F00A3F
:07090000842411F8E6F580E4
:0109070022CD
:0300000002099A58
:0C099A00787FE4F6D8FD7581210209E1A8
:1009A600020A5DE493A3F8E493A34003F68001F200
:1009B60008DFF48029E493A3F85407240CC8C33352
:1009C600C4540F4420C8834004F456800146F6DF21
:1009D600E4800B0102040810204080900A43E47E64
:1009E600019360BCA3FF543F30E509541FFEE49316
:1009F600A360010ECF54C025E060A840B8E493A3DD
:100A0600FAE493A3F8E493A3C8C582C8CAC583CA07
:100A1600F0A3C8C582C8CAC583CADFE9DEE780BEBF
:010A5C000099
:00000001FF
