:0209920080558E
:1008F600E4F50878097C00FD7BFF7A097992FE7F92
:10090600021208D0E4F50874092508F8E6FF120972
:10091600297FE87E031209560508E508C3940240BC
:03092600E680E187
:10097600EF1FAC0670011ED39400EC940050F122D8
:10095600E4FDFCC3ED9FEC9E5015E4FAFB0BBB00D7
:0F096600010AEB647A4A70F50DBD00010C80E4C4
:01097500225F
:010994002240
:02092900AD0718
:10092B00E4FB74807E00A803088006CEA2E713CEFA
:10093B0013D8F8FFEDF582EF558224FF92A1C2A0E8
:0A094B00D2A00BBB08DCC2A2D2A2AE
:01095500227F
:030000000209866C
:0C098600787FE4F6D8FD75810A0208F6BF
:10080000E709F608DFFA8046E709F208DFFA803EDA
:1008100088828C83E709F0A3DFFA8032E309F608C7
:10082000DFFA8078E309F208DFFA807088828C832F
:10083000E309F0A3DFFA806489828A83E0A3F608E3
:10084000DFFA805889828A83E0A3F208DFFA804CBD
:1008500080D280FA80C680D4806980F28033801094
:1008600080A680EA809A80A880DA80E280CA8033FD
:1008700089828A83ECFAE493A3C8C582C8CCC58375
:10088000CCF0A3C8C582C8CCC583CCDFE9DEE78045
:100890000D89828A83E493A3F608DFF9ECFAA9F0C4
:1008A000EDFB2289828A83ECFAE0A3C8C582C8CC1A
:1008B000C583CCF0A3C8C582C8CCC583CCDFEADE33
:1008C000E880DB89828A83E493A3F208DFF980CC95
:1008D00088F0EF60010E4E60C388F0ED2402B4048E
:1008E0000050B9F582EB2402B4040050AF23234535
:0608F00082239008507302
:00000001FF
