:0E098600C1000A08C0F9A4B0999282F88090CE
:10092B00E4F512F513F514751201AF1212088C8F42
:10093B0014E51470090512E512D3940440ECE51488
:0B094B006002F513AF131208F080DC0F
:1008F0008F1520001CC2B0E51575F00A8474082518
:10090000F0F8E6F5A07F017E00120956D200D2B0C1
:1009100022C2B1E51575F00A842408F8E6F5A07F37
:0B092000017E00120956C200D2B12275
:10088C00E4FEEF24FE600E14600F1460102403705D
:10089C000EC294800AC2958006C2968002C297202E
:1008AC0090067E01D29080192091067E02D2918012
:1008BC00102092067E03D29280072093047E04D2ED
:1008CC0093209402D294209502D295209602D2962F
:1008DC00209702D297EE6009EF1425E025E02EFF59
:0308EC00227F0068
:0108EF0022E6
:10097600EF1FAC0670011ED39400EC940050F122D8
:10095600E4FDFCC3ED9FEC9E5015E4FAFB0BBB00D7
:0F096600010AEB647A4A70F50DBD00010C80E4C4
:01097500225F
:01099500223F
:03000000020800F3
:0C080000787FE4F6D8FD758120020847DF
:10080C0002092BE493A3F8E493A34003F68001F2CE
:10081C0008DFF48029E493A3F85407240CC8C333ED
:10082C00C4540F4420C8834004F456800146F6DFBC
:10083C00E4800B0102040810204080900986E47EBD
:10084C00019360BCA3FF543F30E509541FFEE493B1
:10085C00A360010ECF54C025E060A840B8E493A378
:10086C00FAE493A3F8E493A3C8C582C8CAC583CAA3
:10087C00F0A3C8C582C8CAC583CADFE9DEE780BE5B
:010994000062
:00000001FF
