:0708D6007F0E12088280FE74
:1008BA00EF1FAC0670011ED39400EC940050F12295
:10086200E4FDFCC3ED9FEC9E5015E4FAFB0BBB00CC
:0F087200010AEB647A4A70F50DBD00010C80E4B9
:010881002254
:0108DD0022F8
:10088200C2808FA0C281D281EF64016003BF0204E3
:0C0892007F0280027F017E0012086222BB
:10089E00D2808FA0C281D281EF64016003BF0204B7
:0C08AE007F0280027F017E00120862229F
:060800008B088A09890A39
:10080600E4F50BF50CAB08AA09A90A850C82850B41
:10081600831208356018050CE50CAE0B7002050B4B
:0E08260014F5828E83120835FF12089E80D7CB
:0108340022A1
:030000000208CA29
:0C08CA00787FE4F6D8FD75810C0208D69A
:10083500BB010CE58229F582E5833AF583E0225078
:1008450006E92582F8E622BBFE06E92582F8E222C2
:0D085500E58229F582E5833AF583E49322DC
:00000001FF
