:10091D00E4F50DC2003090102000FAD200050DAFA5
:0C092D000D7E0012088280EDC20080E9FF
:10097100EF1FAC0670011ED39400EC940050F122DD
:1008FD00E4FDFCC3ED9FEC9E5015E4FAFB0BBB0031
:0F090D00010AEB647A4A70F50DBD00010C80E41D
:01091C0022B8
:01098D002247
:10093900C2808FA0C281D281EF64016003BF02042B
:0C0949007F0280027F017E001208FD2268
:10095500D2808FA0C281D281EF64016003BF0204FF
:0C0965007F0280027F017E001208FD224C
:100882008E0E8F0F7F011209397F0C120939E50F85
:10089200450E7008E50F2430FF020955E50F450E9D
:1008A2006023AE0EAF0F7C007D0A12082DED2430BE
:1008B200FF120955AE0EAF0F7C007D0A12082D8E75
:0608C2000E8F0F80D7220B
:0608C8008B088A09890A71
:1008CE00E4F50BF50CAB08AA09A90A850C82850B79
:1008DE00831208006018050CE50CAE0B7002050BB8
:0E08EE0014F5828E83120800FF12095580D780
:0108FC0022D9
:0300000002098171
:0C098100787FE4F6D8FD75812002091D86
:10080000BB010CE58229F582E5833AF583E02250AD
:1008100006E92582F8E622BBFE06E92582F8E222F7
:0D082000E58229F582E5833AF583E4932211
:10082D00BC000BBE0029EF8DF084FFADF022E4CCAF
:10083D00F875F008EF2FFFEE33FEEC33FCEE9DEC78
:10084D00984005FCEE9DFE0FD5F0E9E4CEFD22EDBE
:10085D00F8F5F0EE8420D21CFEADF075F008EF2F08
:10086D00FFED33FD4007985006D5F0F222C398FDF9
:05087D000FD5F0EA2296
:00000001FF
