:020973008055AD
:1008F60078087C007D007BFF7A0979737E007F0291
:100906001208D0E4F50AF50A7408250AF8E6FFE5A8
:100916000A04FD120947050AE50AC3940240E98064
:01092600FED2
:100947008FA0ED24FE6006047005C2B022C2B1225A
:10095700EF1FAC0670011ED39400EC940050F122F7
:10092700E4FDFCC3ED9FEC9E5015E4FAFB0BBB0006
:0F093700010AEB647A4A70F50DBD00010C80E4F3
:01094600228E
:01097500225F
:030000000209678B
:0C096700787FE4F6D8FD75810A0208F6DE
:10080000E709F608DFFA8046E709F208DFFA803EDA
:1008100088828C83E709F0A3DFFA8032E309F608C7
:10082000DFFA8078E309F208DFFA807088828C832F
:10083000E309F0A3DFFA806489828A83E0A3F608E3
:10084000DFFA805889828A83E0A3F208DFFA804CBD
:1008500080D280FA80C680D4806980F28033801094
:1008600080A680EA809A80A880DA80E280CA8033FD
:1008700089828A83ECFAE493A3C8C582C8CCC58375
:10088000CCF0A3C8C582C8CCC583CCDFE9DEE78045
:100890000D89828A83E493A3F608DFF9ECFAA9F0C4
:1008A000EDFB2289828A83ECFAE0A3C8C582C8CC1A
:1008B000C583CCF0A3C8C582C8CCC583CCDFEADE33
:1008C000E880DB89828A83E493A3F208DFF980CC95
:1008D00088F0EF60010E4E60C388F0ED2402B4048E
:1008E0000050B9F582EB2402B4040050AF23234535
:0608F00082239008507302
:00000001FF
