:1008CF007F011208977F0C1208977F411208B3809F
:0108DF00FE1A
:1008E000EF1FAC0670011ED39400EC940050F1226F
:10087700E4FDFCC3ED9FEC9E5015E4FAFB0BBB00B7
:0F088700010AEB647A4A70F50DBD00010C80E4A4
:01089600223F
:0108FC0022D9
:10089700C2908FA0C291D291EF64016003BF02049E
:0C08A7007F0280027F017E001208772291
:1008B300D2908FA0C291D291EF64016003BF020472
:0C08C3007F0280027F017E001208772275
:06084D008B088A09890AEC
:10085300AB08AA09A90A850E82850D8312080060D8
:1008630012780B12082D8F828E83120800FF120854
:03087300B380DD72
:01087600225F
:030000000208F003
:0C08F000787FE4F6D8FD75810E0208CF79
:10080000BB010CE58229F582E5833AF583E02250AD
:1008100006E92582F8E622BBFE06E92582F8E222F7
:0D082000E58229F582E5833AF583E4932211
:10082D007401FF3395E0FEFDFC080808E6CF2FF6B6
:10083D0018E6CE3EF618E6CD3DF618E6CC3CF6228F
:00000001FF
